:100000000C94C7030C94E4030C94E4030C94E403F1
:100010000C94E4030C94E4030C94E4030C94E403C4
:100020000C94E4030C94E4030C9471150C944614A2
:100030000C94C0220C94E4030C94E4030C94E403A9
:100040000C94E4030C94E4030C94E4030C94E40394
:100050000C94E4030C9422220C94E4030C94E40327
:100060000C94E4030C94E4030C94E4030C94E40374
:100070000C94E4030C94E4030C94E4030C94E40364
:100080000C94E4030C94E4030C94E4030C94E40354
:100090000C94E4030C94E4030C94E4030C94E40344
:1000A0000C94E4030C94E4030C94E4032307250765
:1000B0003007270729072B072D072F07320734079B
:1000C0003607410738073A073C073E074007430712
:1000D000F708F708350935097E099E09720BCB0B25
:1000E000E009CC0ADE0ADE0A190D1C0D1F0D220DD7
:1000F000250D280D2B0DF30FF80F0210F60FFB0F37
:100100000010FE0F51126B129712D81223132613F0
:100110002B132E133113341337133A133D1340139B
:100120004313461349134E135313561359133528CB
:100130005C28FC295C28FC29A428C728FC29C5299F
:10014000D8298F2A8F2AA22AA22A982AA22AA22A4A
:10015000A22A8F2A8F2A9D2AA22AA22A9D2A350006
:100160002B002961D75C354100001E0014000400FB
:100170001D6134004D001F001A0016001B002E00E8
:100180002A0020000800070006005000E3002100BC
:100190001500090019004F004A00220017000A004C
:1001A00005000000E2002A0001530000000F0000DB
:1001B000006102530153000000070000E200230029
:1001C0001C000B00110000002961240018000D0024
:1001D000100052004B0025000C000E0036005100AC
:1001E0002C00260012000F0037002F0028002700E7
:1001F00013003342387130004E002D003100346856
:10020000D85C2A0000002900010001000100010063
:1002100000003A001E02200222020100FD5C3B00A9
:100220001F02210223020100C95C3C002F022602AA
:100230002F000100CA5C3D0030022702300001009F
:10024000FC5C3E003102350035020000C35C010059
:100250000100000001000000FB5C01000100000043
:1002600001000000C25C3F00520051002402000067
:10027000F95C4000240021001E0001000100410043
:10028000250022001F003700C55C42002600230025
:1002900020002700C65C430025022E0231002E00FC
:1002A00001004400450001000100010000000100C0
:1002B0000100010001000100000001000100010037
:1002C00001000100010001000100F2000100010035
:1002D00001000100F000F1000100F4000100010044
:1002E0000100F3000100F500010001000100010020
:1002F00001000000010001000100000001000000F9
:1003000001000100010000000100000001000100E7
:1003100001000100010000000100010001000100D6
:100320000100A9000100010001000100AC00AA00C9
:10033000B600010001000100AB00A80001000100AF
:100340000100010001000100010001000100AE00F8
:10035000010001000000000000000000000000009B
:10036000000000000000000000000000000000008D
:10037000000000000000000000000000000000007D
:10038000000000000000000000000000000000006D
:10039000000000000000000000000000000000005D
:1003A000000000000000000000000000000000004D
:1003B000000000000000000000000000000000003D
:1003C000000000000000000000000000000000002D
:1003D000000000000000000000000000000000001D
:1003E000000000000000000000000000000000000D
:1003F00000000000000000000000000000000000FD
:1004000000000000000000000000000000000000EC
:1004100000000000000000000000000000000000DC
:1004200000000000000000000000000000000000CC
:1004300000000000000000000000000000000000BC
:1004400000000000000000000000000000000000AC
:10045000000000000000000000000000000000009C
:10046000000000000000000000000000000000008C
:10047000000000000000000000000000000000007C
:10048000000000000000000000000000000000006C
:10049000000000000000000000000000000000005C
:1004A0000000000000000000000EFFFF0EFFFF0034
:1004B00000009AFFFF9AFFFF9AFFFF000000000074
:1004C000000000000000000000000000000000002C
:1004D00000000069FFFF000000000000000000694C
:1004E000FFFF69FFFF69FFFF000000000000000040
:1004F00000000000000000000000F9E4FFF9E4FF44
:1005000000000000000000000000000000000000EB
:1005100001010101010101010102020202020202C4
:100520000203030303030303040404040405050591
:10053000050506060606060707070708080808094E
:1005400009090A0A0A0B0B0B0C0C0C0D0D0D0E0EF3
:100550000E0F0F1010101111121213131414151581
:1005600016161717181819191A1A1B1C1C1D1D1EF0
:100570001F1F20212122232324252526272828293F
:100580002A2B2C2C2D2E2F30313132333435363767
:1005900038393A3B3C3D3E3F404142434445464763
:1005A00048494B4C4D4E4F50525354555758595A39
:1005B0005C5D5E606163646567686A6B6C6E6F71D9
:1005C00072747677797A7C7D7F8182848687898B45
:1005D0008D8E9092949597999B9D9FA1A2A4A6A879
:1005E000AAACAEB0B2B4B6B9BBBDBFC1C3C5C8CA70
:1005F000CCCED0D3D5D7DADCDEE1E3E6E8EAEDEF26
:10060000F2F4F7F9FCFF05010902A10185020901D5
:10061000A100050919012905150025019505750198
:1006200081029501750381010501093009311581A8
:10063000257F95027508810609381581257F95016A
:1006400075088106050C0A38021581257F9501750C
:10065000088106C0C005010980A1018503160100BB
:100660002603001A81002A8300751095018100C0BD
:10067000050C0901A1018504160100269C021A013E
:10068000002A9C02751095018100C005010906A190
:10069000018505050719E029E7150025019508756D
:1006A0000181020508190129059505750191029539
:1006B00001750391010507190029EF150025019522
:1006C000F075018102C005010906A101050719E0C5
:1006D00029E7150025019508750181029501750826
:1006E00081010508190129059505750191029501FA
:1006F000750391010507190029FF150026FF0095D4
:100700000675088100C009023B00020100A0FA0939
:100710000400000103010100092111010001224030
:10072000000705810308000A090401000103000015
:100730000009211101000122C000070582032000E9
:100740000A1201100100000008EDFE07130100016C
:100750000203010403300000001603450072006725
:10076000006F0044006F007800200045005A000030
:100770000016034500720067006F0044006F0078A8
:1007800000200045005A0000000403090400112461
:100790001FBECFEFDAE0DEBFCDBF13E0A0E0B1E0D7
:1007A000EAEEF4E602C005900D92AE36B107D9F735
:1007B00026E0AEE6B3E001C01D92A231B207E1F738
:1007C0000E94BD160C9473320C9400008F929F927D
:1007D000AF92BF92CF92DF92EF92FF920F931F934F
:1007E000CF93DF93CDB7DEB728970FB6F894DEBF6F
:1007F0000FBECDBFFC01F080118183819481892BD4
:1008000011F40C94A90C1F3F29F40FEFF01611F40A
:100810000C94A90C6F0185E0DE01119601900D92F8
:100820008A95E1F7F601228189819A81222349F094
:100830000E946224082F682F89819A810E94DB24FC
:1008400003C00E94AE24082F26E0129FF00111245D
:1008500034E5039FE00DF11D1124EF0DF11DEE0FA6
:10086000FF1FE25AFE4F05911491F6018281073F66
:10087000FCE51F0759F0083F2CE5120709F446C0B4
:10088000023C3CE5130709F09CC062C0882309F4D0
:10089000EAC09091810381E0890F8770987F85304D
:1008A00020F4892B8093810302C09093810380916F
:1008B00081038770EFEF8E9FC00111249595879576
:1008C00095958795992790938900809388009093B8
:1008D0008B0080938A0090938D0080938C004091D0
:1008E00081035091820360918303709184038FE0B0
:1008F00090E00E946A2F6091BF057091C0058091C1
:10090000C1059091C2050E94D90FADC0882309F49A
:10091000AAC08091810383FB222720F991E09227CE
:1009200090FB83F980938103992329F040E060E0F4
:1009300080E00E94FE1D40918103509182036091EE
:100940008303709184038FE090E00E946A2F8BC034
:10095000882311F40C94A90C9091170180918103C4
:100960009F3F59F4109217018F7E8093810340E0DE
:1009700060E080E00E94FE1D06C09FEF909317018B
:100980008061809381034091810350918203609143
:100990008303709184038FE090E028960FB6F8945B
:1009A000DEBF0FBECDBFDF91CF911F910F91FF90A2
:1009B000EF90DF90CF90BF90AF909F908F900C946E
:1009C0006A2F0B3FFCE51F07A9F058F4093F3CE5EF
:1009D000130709F49FC00A3F9CE5190709F47DC07D
:1009E00042C00C3FECE51E0771F00D3FFCE51F0710
:1009F00069F139C0882309F4ACC781E00E940A1E5E
:100A0000109208062CC0882309F4A3C781E00E9435
:100A10000A1E86E5809308068FEF8093090680E81A
:100A200080930A0628960FB6F894DEBF0FBECDBF9E
:100A3000DF91CF911F910F91FF90EF90DF90CF90BA
:100A4000BF90AF909F908F900C94021E882309F462
:100A500080C781E00E940A1E8BE1809308068FEF19
:100A600080930906DDCFF6018281882381F0033E61
:100A70002CE5120709F494C008F087C0013E8CE50C
:100A8000180709F07BC010927D030E94741F17FFA6
:100A9000FBC0F6018281811189C00A3CFCE51F0779
:100AA00009F447C108F453C1013D9CE5190709F455
:100AB000DEC250F1053DFCE51F0709F413C308F43D
:100AC00013C70D3D9CE5190709F41DC30E3DECE568
:100AD0001E0709F021C3F6018281882309F439C772
:100AE00028960FB6F894DEBF0FBECDBFDF91CF9131
:100AF0001F910F91FF90EF90DF90CF90BF90AF903C
:100B00009F908F900C9457230D3CFCE51F0739F400
:100B1000F6018281882309F41CC781E01BC00E3CCA
:100B20002CE5120708F4B3C20F3C9CE5190709F441
:100B3000BBC608F0C9C6F6018281882309F409C73B
:100B40008091070686958695825C8F73833008F4C2
:100B500038C182E028960FB6F894DEBF0FBECDBF35
:100B6000DF91CF911F910F91FF90EF90DF90CF9089
:100B7000BF90AF909F908F900C940A1E023E9CE510
:100B8000190709F084CF81E00EC0043EECE51E0792
:100B900049F0053EFCE51F0709F079CF84E003C06A
:100BA00082E001C083E080937D036FCF8091D00508
:100BB00080936E031092D00580917D03813071F097
:100BC00048F08230D1F08430F1F486EE0E941A2D84
:100BD00088E117C082EE0E942D2D15C08CEC9CE0A0
:100BE0000E940D2788E10E942D2D88E10E94B32CE0
:100BF0008CEB9CE00E940D2706C082EE0E942D2DFA
:100C000087E50E941A2D8FE39CE90197F1F700C058
:100C100000007801E894F7F85CE0A52EB12CC7013C
:100C20000A2C02C0969587950A94E2F7282F2F7018
:100C300041F0822F90E02A3010F44D9604C00697C0
:100C400002C087E290E00E941A2D94E0A91AB10830
:100C5000ECEFAE16EFEFBE0611F780917D03813009
:100C600039F040F0823031F0843051F488E206C02F
:100C70008CE204C082EE0E94B32C02C00E941A2DA6
:100C800080916E038093D005003FFCE51F07B1F112
:100C900080F4083D3CE51307C9F0093D8CE51807D1
:100CA000C9F1073D9CE51907C1F526E241EE61EE69
:100CB00010C0023FECE51E0749F120F1033F2CE58F
:100CC000120759F527E245EE66EE03C027E245EE2E
:100CD00065EEC60128960FB6F894DEBF0FBECDBFF5
:100CE000DF91CF911F910F91FF90EF90DF90CF9008
:100CF000BF90AF909F908F900C949D1F26E241EE85
:100D000060EEE7CF27E245EE64EEE3CF26E241EE68
:100D100062EEDFCF28E241E0DBCFF601828188235B
:100D200019F010926F03B9CE0A3CFCE51F0709F0D9
:100D300072C1F6018281882309F40BC620910A064C
:100D400030E1231B08F420E020930A066BCE033C1D
:100D50003CE51307E9F4F6018281882309F4F9C51B
:100D60008091D005827269F128960FB6F894DEBFA3
:100D70000FBECDBFDF91CF911F910F91FF90EF90EC
:100D8000DF90CF90BF90AF909F908F900C94161EE5
:100D9000043C8CE5180748F1063C9CE5190709F46A
:100DA0004AC108F043C5043CFCE51F0709F04EC1E9
:100DB000F6018281882309F4CCC58091D005827226
:100DC00099F228960FB6F894DEBF0FBECDBFDF9123
:100DD000CF911F910F91FF90EF90DF90CF90BF9038
:100DE000AF909F908F900C942C1E05319CE51907B5
:100DF00008F0C6C00230ECE51E0708F469C0F60131
:100E00008281882309F493C10E944C23811102C07E
:100E10000E94572384E090E00E94342F90E090934A
:100E2000940380939303F801E350FC45E231F1050C
:100E300030F4EA5AFF4F809193030C944031809133
:100E40009303816027C0826025C0846023C08061D5
:100E500021C080621FC080641DC080681BC0846088
:100E6000886018C08E7F16C08D7F14C08B7F12C023
:100E70008F7E10C08F7D0EC08F7B0CC08F770AC015
:100E80008B7F877F07C087FB222720F991E092277D
:100E900090FB87F9809393036091930384E090E043
:100EA0000E94582F1092D00528960FB6F894DEBFF6
:100EB0000FBECDBFDF91CF911F910F91FF90EF90AB
:100EC000DF90CF90BF90AF909F908F900C948B2C21
:100ED0000115FCE51F0709F044C0F6018281882353
:100EE00009F437C51092D0050E948B2CFFEF04E364
:100EF0001CE0F15000401040E1F700C00000F89401
:100F000081E08093E00080E28093D8001092C900D5
:100F10008FE19EE40197F1F700C000001DBA109226
:100F200068001CBC10BE1FBA10927A0010926E00AE
:100F300010926F0010927100109272001092C9000E
:100F40001092BC0014B817B81AB81DB810BA109295
:100F5000BC0015B818B81BB81EB811BA0C94003FE5
:100F6000F8C401301C4509F0E2C0F60182818823F3
:100F700009F4EFC48091B00381608093B003E9C4A9
:100F800006313CE51307A9F59091D005F601828161
:100F9000882381F09A7A81E009F480E080937003DD
:100FA000811102C069E201C065E380E395E00E941F
:100FB00014230BC080917003811102C069E201C04B
:100FC00065E380E395E00E94E92228960FB6F89445
:100FD000DEBF0FBECDBFDF91CF911F910F91FF906C
:100FE000EF90DF90CF90BF90AF909F908F900C9438
:100FF0001C24023C1C4509F09AC0F601828188231A
:1010000009F4A7C49091070681E089278093070619
:101010001092060107CD0B3C2CE5120720F5033C8E
:101020003CE5130709F497CE08F490C0063C9CE514
:10103000190709F0EDC3F6018281882309F489C4F8
:1010400080910806885080930806ECCC053C1C452E
:1010500009F06DC0F6018281882309F47AC4809179
:101060000806885FF0CF013D9CE5190791F5F60170
:101070008281882309F46DC4809107068695869540
:101080008F5C8F73853008F49CCE8FE063CD0B3C72
:101090003CE5130761F4F6018281882309F459C401
:1010A00020910B0630E1230F08F42FEF0FC00C3C0A
:1010B0001C4509F03CC0F6018281882309F449C42B
:1010C00020910B0630E1231B08F420E020930B064F
:1010D000A9CC023DECE51E0708F4D5C3053DFCE5AF
:1010E0001F0739F4F6018281882309F432C483E2B0
:1010F00031CD063D2CE5120708F4F6C30D3D9CE505
:10110000190709F01CC4F6018281882309F421C45F
:1011100082E08093BF031DC40C3D1C4541F4F601E1
:101120008281882309F415C41092BF0312C4F6010A
:101130008281008111818823F9F0C8010E94622414
:10114000F82E682FC8010E94DB241AC005319CE5E7
:10115000190708F053C30230ECE51E0708F04FCE24
:101160000115FCE51F0709F4B8CE01301C4509F450
:10117000FCCEF60100811181C8010E94AE24F82E38
:10118000B8018F2D0E947E0D182F382FF601258172
:1011900022952F70028101111092C5058091C3051F
:1011A0008770A9F0002399F080E2810F883078F0F1
:1011B00082E02F8338879E830E943C258091C3055F
:1011C0008770EE24E3942F8138859E818111E12C74
:1011D000A92EA2944FE0A422B12CFCE0AF16B104DA
:1011E00008F0D9C2F501E859FF4F0C944031892F1E
:1011F000807F9F70F92E882319F0F29480EFF822F7
:101200000023B9F0FF2009F457C280E2810F883033
:1012100010F0311106C09091D005F92AF092D00556
:1012200005C09091C505F92AF092C5050E941C24BD
:1012300043C2812F38870E94B32C3885FF2009F4E0
:10124000AAC2105EF094183010F0311106C09091CF
:10125000D005F922F092D00505C09091C505F9227C
:10126000F092C5050E941C2496C2492F407F892F09
:101270008F70403211F08295807F332319F0313026
:10128000E9F025C0002381F03091C605222351F0FA
:10129000213041F4982F932B391709F47CC2909395
:1012A000C60579C2832B17C0222319F0213009F417
:1012B00072C28E830E9416248E811DC0002321F0ED
:1012C000223008F068C207C0211165C214C0002393
:1012D00029F02111F1C10E94A92C5DC2222359F0ED
:1012E000193309F0FBC10FEF27EE33E00150204026
:1012F0003040E1F7F1C10E949E2C4DC2292F269566
:101300002695237030E02115310521F0213031057B
:1013100059F041C2002319F0812F937002C080E080
:1013200090E00E94CF1D40C2002319F0812F9370DE
:1013300002C080E090E00E94B91D36C20023F9F09F
:10134000153F51F0163F71F0143FA9F480917103DD
:101350009091720381600BC0809171039091720330
:10136000826005C0809171039091720384609093B4
:10137000720380937103812F0E94BA211EC0153F12
:1013800051F0163F71F0143FA9F4809171039091D0
:1013900072038E7F0BC080917103909172038D7FD9
:1013A00005C080917103909172038B7F90937203BB
:1013B00080937103812F0E94F0200E94AA22F4C121
:1013C000892F837009F070C00111ECC1812F8295C3
:1013D00086958770880F880F412F4F7050E060E02E
:1013E00070E04A015B01082E04C0880C991CAA1CFD
:1013F000BB1C0A94D2F714FF12C00FE010E020E0EB
:1014000030E004C0000F111F221F331F8A95D2F74E
:10141000B901A801409550956095709503C040E0D2
:1014200050E0BA01969596959370892F90E082309E
:10143000910529F183309105C9F00091C7051091FC
:10144000C8052091C9053091CA05019759F048296E
:1014500059296A297B29CB01BA0160237123822390
:1014600093230AC0802A912AA22AB32ACB01BA0167
:10147000682979298A299B290E94762593C14829C0
:1014800059296A297B298091C7059091C805A091A7
:10149000C905B091CA058A019B01082719272A2787
:1014A0003B27C901B801E8CF002319F0892F8170CB
:1014B00001C08695882309F475C1812F8295869590
:1014C0008770880F880F412F4F7050E060E070E008
:1014D0004A015B01082E04C0880C991CAA1CBB1C85
:1014E0000A94D2F714FF12C00FE010E020E030E0C1
:1014F00004C0000F111F221F331F8A95D2F7B901B4
:10150000A801409550956095709503C040E050E06B
:10151000BA01969596959370892F90E08230910547
:10152000E9F08330910579F10091BF051091C00574
:101530002091C1053091C205019759F048295929D8
:101540006A297B29CB01BA0160237123822393236B
:1015500020C0802A912AA22AB32A15C048295929D5
:101560006A297B298091BF059091C005A091C10592
:10157000B091C2058A019B01082719272A273B271A
:10158000C901B80106C0CB01BA01682979298A29A5
:101590009B290E940B2506C19F70F92E002339F06C
:1015A000892F0E945525812F0E94A92CFBC0812FD5
:1015B0000E949E2C8F2D0E941725F4C0812F323F50
:1015C000C9F128F4303F49F0313F79F170C0333F21
:1015D000C1F1343F09F44DC06AC0002311F121115B
:1015E000DAC0292F2F7181E090E0A0E0B0E0AC01DB
:1015F000BD0104C0440F551F661F771F2A95D2F7FF
:101600008091BF059091C005A091C105B091C20520
:101610008A019B01082719272A273B27C901B801FE
:1016200025C0223008F0B7C0DCCF002329F0892F75
:101630008F712EC00023D9F3892F8F710E94172537
:10164000AAC0002381F0292F2F7181E090E0A0E053
:10165000B0E0BC01CD0104C0660F771F881F991F41
:101660002A95D2F703C060E070E0CB010E940B2501
:1016700092C0002381F0192F1F71812F0E945525E0
:1016800028E0129FC001112483608093C305812F3D
:101690000E94552580C081E02F830E943C252F8128
:1016A000223008F478C082E00E943C2574C00023F8
:1016B00039F0222309F4BBCF812F0E942D2D6BC05E
:1016C000222309F4B9CF893349F43FEF87EE93E041
:1016D000315080409040E1F700C00000812F0E940F
:1016E000B32C59C0323FB1F028F4303F49F0313FBC
:1016F000F9F028C0343FB9F058F0353F71F022C0FE
:10170000002309F451C090910D0681E0892708C09B
:1017100081E0082700930D0647C0011145C081E014
:1017200080930D0641C001113FC010920D063CC0D0
:10173000002329F080910C06882329F329C0222355
:1017400011F332C080910C062223C1F0882341F0AE
:1017500090910D0681E0892780930D0610920C066A
:10176000812F002319F00E942D2D1EC00E94B32C42
:1017700086E0F60111928A95E9F716C08823A1F058
:10178000011112C090910D0681E0892780930D060A
:1017900010920C0609C0F8E0AF1AB10804E0A016D8
:1017A000B10410F40E94E51DEE2009F4D2C080912E
:1017B000C30580FDCEC0F60112828595859585957D
:1017C0000E945525C6010E94E6038091C3058595B8
:1017D0008595859528960FB6F894DEBF0FBECDBFD0
:1017E000DF91CF911F910F91FF90EF90DF90CF90FD
:1017F000BF90AF909F908F900C94172506313CE5D9
:10180000130709F4C1CB023C1C4509F4F6CBB1CC5B
:10181000073CECE51E0750F4043CFCE51F0709F407
:10182000C7CA053C1C4509F415CCA3CC083C3CE5D3
:10183000130771F4F6018281882309F48AC020918C
:10184000090630E1231B08F420E020930906EAC8CA
:10185000093C1C4560F4F6018281882309F479C0B3
:101860002091090630E1230F08F42FEFEECFF601A7
:101870008281882309F46DC020910A0630E1230F8C
:1018800008F42FEF61CA0D3CFCE51F0709F440C9BD
:1018900008F04AC90B3C3CE5130709F4FCCB0C3CAF
:1018A0001C4509F408CC65CCF6018281882309F433
:1018B00050C08091070686958695865C8F7382302E
:1018C00008F47FCA86E046C9F6018281882309F4BC
:1018D00040C08091070686958695895C8F73853018
:1018E00008F46FCA89E036C9033D3CE5130731F4BB
:1018F000F6018281882369F188E12CC9043D1C45E9
:1019000078F4F6018281882321F18091070686957B
:101910008695855D8F73823008F453CA85E11AC9B4
:10192000F60182818823A9F0809107068695869525
:10193000895D8F73893008F444CA89E10BC90E3D73
:10194000ECE51E0709F4C7C80C3D1C4509F011CC95
:10195000E6CB28960FB6F894DEBF0FBECDBFDF9161
:10196000CF911F910F91FF90EF90DF90CF90BF909C
:10197000AF909F908F900895282F277081E090E07E
:1019800001C0880F2A95EAF780959091C5058923B3
:101990008093C5050C941C24282F277081E090E0CB
:1019A00001C0880F2A95EAF79091C505892B80938D
:1019B000C5050C941C24CF93E82F873080F58091C7
:1019C000090190910A01892B09F047C0CE2F64E6E6
:1019D00070E080E40E944D2E90930A0180930901EB
:1019E000892BD1F464E670E082E10E94A42E9093EA
:1019F0000A0180930901892B79F481E090E001C00C
:101A0000880FCA95EAF764E670E080950E94A42EDC
:101A100090930A0180930901CF910C94202F90E0BC
:101A2000FC013797E730F105C0F4EC58FF4F0C94F8
:101A30004031209A289811C0219A29980EC0229AE4
:101A40002A980BC0239A2B9808C0529A5A9805C01E
:101A5000539A5B9802C03E9A4698CF910895CF93CF
:101A6000873008F03FC08091090190910A01892BCD
:101A700009F041C064E670E080E40E944D2E90932E
:101A80000A0180930901892B11F0C0E027C064E6A8
:101A900070E083E10E94A42E90930A0180930901D3
:101AA000892B99F764E670E081E40E944D2E9093B3
:101AB0000A0180930901892B41F784E690E00E9496
:101AC000D42E97FF05C090930A0180930901DDCFC2
:101AD000C82FC09510920A01109209010E94202F70
:101AE0008C2F0AC09FB18FB1807F869586959370A9
:101AF000892B809501C080E0CF910895CF93DF932B
:101B000026E0729FF001112434E5839FE00DF11D62
:101B10001124E60FF11DEE0FFF1FE25AFE4FC59193
:101B2000D491CE01C238D10549F1B0F4C133D10509
:101B300009F464C048F4C932D10509F458C0CA3266
:101B4000D10509F462C068C0C533D10509F448C0A5
:101B5000C933D10599F060C0C33ED10541F138F4D5
:101B6000C03ED10591F0C23ED105B1F055C0C63E90
:101B7000D10521F1C73ED10561F14EC020919303FB
:101B800020FD12C221FD10C211C22091930320FF3B
:101B90000DC289E390E00AC22091930322FF06C29E
:101BA0008091930384FDB2C183EE90E0FFC18091E8
:101BB000930382FFF5CF82EE90E0F8C1209193036A
:101BC00023FFF4C18091930384FDA0C187EE90E0D0
:101BD000EDC18091930383FFF5CF86EE90E0E6C1DF
:101BE0002091930325FFE2C189E290E0DFC12091BB
:101BF000930325FFDBC185E390E0D8C120919303D7
:101C000026FFD4C18AE290E0D1C12091930326FF40
:101C1000CDC181E390E0CAC1C11520E5D20708F02B
:101C200047C0C11530E4D30708F034C1C83ED10520
:101C300018F5C03ED10508F0B9C1C83AD10570F415
:101C4000C53AD10508F0B0C0C130D10509F4AEC124
:101C500008F45CC1249708F459C1A8C1CF3BD10551
:101C600008F4ADC0C03CD10508F450C1FE01EE0F30
:101C7000FF1FEA57FC4F02C1C11520E2D20760F4F2
:101C8000C11531E0D30708F091C1C03FD10508F478
:101C90003DC1CE0190658AC1C11580E3D80708F027
:101CA000F0C0FE01FF70EE0FFF1FEA5FFA4FE6C0C3
:101CB000C11595E5D90708F044C0C11524E5D20740
:101CC00008F000C1C11532E5D30710F5C11581E553
:101CD000D80708F0E3C02C2F237081E090E002C009
:101CE000880F991F2A95E2F79C689E0174E036954B
:101CF00027957A95E1F72370922BEC2FEF70E695FC
:101D0000E69530E2E39FF00111248E2B9F2B4EC10C
:101D10008C2F86958695AE0143705527C115D34506
:101D200008F0C1C090E2899F9001112481E090E009
:101D300002C0880F991F4A95E2F7822B932B9C686B
:101D400035C1C1152AE5D207A0F4C11539E5D3077D
:101D500008F0C6C0C11586E5D80708F4B8C0C1159B
:101D600098E5D90708F4D2C09C2F8827806F906A25
:101D70001DC1C1152BE5D20708F4C8C0CE01C1159D
:101D80003CE5D30708F4BFC090568115904208F097
:101D9000BDC08D2F8F710E947A1FFE01FF27F06258
:101DA0008F719F01382BADC0C53AD10509F4B1C080
:101DB000C63AD10509F0B0C082E890E4F7C0C83A4D
:101DC000D10509F4ACC0C93AD10509F4ABC0CA3A8F
:101DD000D10509F4AAC0CB3AD10509F4A9C0CC3A7F
:101DE000D10509F4A8C0CB3BD10509F4A7C0CC3B71
:101DF000D10509F4A6C0CD3AD10509F4A5C0C03B70
:101E0000D10509F4A4C0CE3AD10509F4A3C0CF3A54
:101E1000D10509F4A2C0C13BD10509F4A1C0C23B60
:101E2000D10509F4A0C0C33BD10509F49FC0C43B50
:101E3000D10509F49EC0C53BD10509F49DC0C63B40
:101E4000D10509F49CC0C73BD10509F49BC0C83B30
:101E5000D10509F49AC0C93BD10509F499C0CD3B1D
:101E6000D10509F498C0CE3BD10509F497C0CA3B0F
:101E7000D10509F496C080E094E498C085919491CE
:101E800095C09E013327C901D3FF02C0986C8EC054
:101E9000906C8CC0CE019F70906A88C09C2F882760
:101EA000816F906A83C090E2899F9001112481E044
:101EB00090E002C0880F991F4A95E2F7822B932B7E
:101EC0009A6874C09C2F8827846F906A6FC08C2F8B
:101ED0000E947A1F8F7190E0982F8827906266C0C9
:101EE0008C2F8F700E947A1FFE0194E0F695E79583
:101EF0009A95E1F7EF70F0E0FE2FEE27F0699F0171
:101F0000282BC90153C09927906650C080E090E00B
:101F10004DC081E890E44AC083E890E447C082EE77
:101F200094E444C089EE94E441C08AEE94E43EC057
:101F300085EB94E43BC086EB94E438C083EB94E4F7
:101F400035C084EB94E432C087EB94E42FC08CEC72
:101F500094E42CC08DEC94E429C083E895E426C079
:101F60008AE895E423C082E995E420C084E995E4F9
:101F70001DC081E296E41AC083E296E417C084E2B1
:101F800096E414C085E296E411C086E296E40EC0A1
:101F900087E296E40BC08FE694E408C080E794E4FF
:101FA00005C08AE296E402C080EE90E0DF91CF9116
:101FB0000895CF92DF92EF92FF926B017C010E9415
:101FC000C62356985E9825982D9826982E9827987F
:101FD0002F9890E0FC013197E730F105A8F4E5581F
:101FE000FF4F0C944031259A2D9A0EC0259A2D9AB8
:101FF000269A2E9A09C0259A2D9A04C0259A2D9AC0
:10200000269A2E9A279A2F9AC701B601FF90EF9031
:10201000DF90CF90089580E290E090930A01809342
:10202000090180917A0381110EC00E94472E81E040
:1020300080937A032FEF83ED90E32150804090400E
:10204000E1F700C0000064E670E080E40E944D2EDD
:1020500090930A0180930901892B09F04EC064E630
:1020600070E080E00E94A42E90930A018093090101
:10207000892B09F042C064E670E080E00E94A42E43
:1020800090930A0180930901892BB9F564E670E009
:102090008FE30E94A42E90930A0180930901892B5B
:1020A00061F50E94202F64E670E080E40E944D2ECE
:1020B00090930A0180930901892BF9F464E670E09A
:1020C0008CE00E94A42E90930A0180930901892B31
:1020D000A1F464E670E080E00E94A42E90930A01CF
:1020E00080930901892B49F464E670E08FE30E9434
:1020F000A42E90930A01809309010E94202F8091C1
:102100000901089556985E9825982D9826982E983E
:1021100027982F988FEF90E0909389008093880004
:1021200090938B0080938A0090938D0080938C0015
:10213000259A2D9A2FEF80E792E021508040904021
:10214000E1F700C00000269A2E9A2FEF80E792E078
:10215000215080409040E1F700C00000279A2F9A5C
:102160002FEF80E792E0215080409040E1F700C0DF
:10217000000025982D982FEF80E792E021508040B5
:102180009040E1F700C0000026982E982FEF80E7DE
:1021900092E0215080409040E1F700C00000279875
:1021A0002F9856985E9825982D9826982E982798BF
:1021B0002F98089584B1807F84B985B1807F85B9D7
:1021C0008AB1837F8AB98BB1837F8BB93E98469859
:1021D000089580B38C7080BB81B3836F81BB0895F9
:1021E0004F925F926F927F928F929F92AF92BF9227
:1021F000CF92DF92EF92FF920F931F93CF93DF93D3
:102200001F92CDB7DEB78091090190910A01892B09
:1022100091F0809179038F5F8093790381110BC0D6
:102220000E940B1090E090930A0180930901892B82
:1022300011F40E94821035E8E32E33E0F32E4CE8CF
:10224000C42E43E0D42E5701912C10E007E0090D75
:10225000892D0E94DB0C802F0E94DB0C892D0E94AF
:102260002F0DD5019C91981721F08C93882483948D
:1022700001C0812C802F0E942F0DF60190819817AC
:1022800019F0808381E001C080E08829182B0E942A
:10229000DA109394FFEFAF1ABF0A2FEFC21AD20AD7
:1022A00037E09312D3CF0E949E226AEF70E00E9423
:1022B0001831BC01482F809174038823D9F1109202
:1022C0007403E0917B03F0917C03DF011E9690E0A4
:1022D0008BEF2AEFA22EB12C20812B3F99F0C22E3A
:1022E000D12C421720F09B012C193D0905C0950106
:1022F0002C193D09260F371F2F30310514F080832C
:1023000001C091E03196EA17FB0731F7909374030F
:10231000111102C0911110C01092730360917B03E0
:1023200070917C0390917403E8E9F3E080E03EE073
:102330003E0F32C01111F0CF809173038111ECCFA9
:102340006091750370917603809177039091780383
:102350000E9448222FB7F8948090CB059090CC052E
:10236000A090CD05B090CE052FBF809275039092BE
:102370007603A0927703B0927803409003065090C2
:1023800004066090050670900606AFEF4A165A06DE
:102390006A067A06D1F43AC0D7012D917D015081A9
:1023A000521749F0DB015C915B3F21F44C93208391
:1023B00091E001C081E06F5F7F4F31963E13ECCF1B
:1023C0009093740380937303BBCFAB01BC0166276A
:1023D00077276A017B01C094D094E094F094C414F0
:1023E000D504E604F70420F48FEF9FEFDC0106C06C
:1023F000DB01CA01840D951DA61DB71D8093030640
:1024000090930406A0930506B0930606F090C103CE
:10241000F11009C090910706892F837021F0792E61
:102420007694769401C0712C809106018130A1F0E0
:1024300038F0823009F454C1833009F45EC16EC1B2
:10244000109216018092FF0590920006A09201065C
:10245000B092020681E04EC180910801781210C04E
:1024600080910706837090E02091070130E051E0F1
:1024700040E08217930709F450E0252F342F02C063
:1024800021E030E0822F817080931801872D90E049
:102490008531910508F012C1FC01EE57FF4F0C94F5
:1024A000403190911601232B09F408C1E92EEE0C5E
:1024B000EE0CE90E05E00E0D013308F000E3E01626
:1024C00008F0BDC020E040E060E08E2D90E00E946A
:1024D000001EE394F4CF90911601C92ECC0CCC0CC5
:1024E000C90E05E00C0D013308F000E36091080609
:1024F0007091090680910A060E94DB1EE62ED82EF6
:10250000C01608F09CC0EC2DF0E0DF01A35CBC4FCE
:102510008C9190911701982341F02D2D4E2D672F0E
:10252000CF0179830E94001E7981C394E9CF809105
:102530001601A82EAA0CAA0CA80E35E03A0D3133CC
:1025400008F030E3E0900906B0900A0620910B06EF
:1025500000E4029F012D1124A31628F5CA2CD12CCA
:10256000F601E35CFC4F8081909117019823C9F03C
:10257000F601EE0FFF1FE252FD4F908192959F7082
:1025800060910806099F600D11247E2D8B2D3983E3
:102590000E94DB1E462F282F672FC6010E94001EB7
:1025A0003981A394D9CF81E0303308F488C086C044
:1025B00080911601C82ECC0CCC0CC80E05E00C0D79
:1025C000013308F000E3E090080670910906D0900E
:1025D0000A0680910B06682F669566956695809130
:1025E000FF059091000679830E94D01E0E944E1E26
:1025F0008058982F97FD9195990F292F3D2D239F56
:10260000212D11246E2D7981822F0E94DB1EE62E52
:10261000D82EC016A0F4EC2DF0E0DF01A35CBC4F77
:102620008C9190911701982341F02D2D4E2D672FFD
:10263000CF0179830E94001E7981C394EACF81E0A3
:102640000033E8F13BC08EE79AE102C082E59AE1EF
:102650000E94C32634C087E59BE11DC088E39BE14F
:102660001AC08DE19BE11CC082E09BE119C080E5AE
:102670009AE1EECF87E49AE1EBCF8EE39AE1E8CFDF
:1026800083E29AE1E5CF84E19AE10AC081EA9EE122
:1026900002C081EF9AE10E94672611C08DED9AE198
:1026A0000E94EB250CC086EE99E105C084EB99E110
:1026B00002C086E799E10E948A2501C080E09091DE
:1026C00016019F5F90931601811128C082E08093CC
:1026D000060180911801811121C0772051F01EC0A0
:1026E00070920801809107068370809307010E9411
:1026F000A71B83E08093060111C06091FF057091D4
:10270000000680910106909102060E9448226A31DB
:1027100071058105910510F010920601F11084C039
:102720008091C103811180C08091810383FD7CC0B1
:102730006091BF057091C0058091C1059091C2055F
:102740000E94C623823009F067C086E7E82E84E045
:10275000F82E612C712CF7016491319674913196A9
:102760008491611107C0711105C0811103C020E07F
:1027700040E043C00E94DB1EC62E072FD82E90914A
:102780000A06692F70E080E090E00E941D3020E092
:1027900030E04FE753E40E947C2F4B015C016D2D2C
:1027A00070E080E090E00E941F309B01AC01C50109
:1027B000B4010E94AB300E94EE2FD62E6C2D70E03B
:1027C00080E090E00E941F309B01AC01C501B40184
:1027D0000E94AB300E94EE2FC62E602F70E080E08A
:1027E00090E00E941F309B01AC01C501B4010E9422
:1027F000AB300E94EE2F2D2D4C2DC3010E94001EE8
:10280000FFEF6F1A7F0A23E0E20EF11C30E363163C
:10281000710409F0A0CF08C080911701811104C094
:1028200040E060E00E94FE1D812F0F90DF91CF916C
:102830001F910F91FF90EF90DF90CF90BF90AF90DE
:102840009F908F907F906F905F904F900895E8EDEC
:10285000F0E080818E7F80831092E2001092DA0097
:102860001092E100A0EEB0E08C9181608C938081A9
:102870008F77808319BCA7EDB0E08C918E7F8C930D
:1028800080818F7E80831092C00308951F920F92E3
:102890000FB60F9211242F933F934F935F936F9333
:1028A0007F938F939F93AF93BF93CF93DF93EF93D8
:1028B000FF93C091E900CF708091EC00D82FD170C8
:1028C00080FDD0E81092E9008091F000877F80932E
:1028D000F00078940E944F271092E9008091F00058
:1028E00088608093F000CD2BCF70C093E900FF91FA
:1028F000EF91DF91CF91BF91AF919F918F917F9198
:102900006F915F914F913F912F910F900FBE0F905C
:102910001F9018952091E4003091E50095E64091D4
:10292000EC00842F817040FF22C08091E80080FD80
:102930001CC08091F505882391F0853091F080913D
:10294000EB0085FD10C04091E4005091E500421776
:10295000530729F39A01915011F784E0089582E01A
:10296000089583E0089581E0089580E008954091FE
:10297000E80042FFDECF08958091F70587FF11C080
:102980008091E80082FD05C08091F5058111F8CFA6
:1029900011C08091E8008B770BC08091F5058823EA
:1029A00049F08091E80080FFF8CF8091E8008E77B1
:1029B0008093E8000895982F973058F59093E90098
:1029C000981739F07091EC002091ED005091F000D3
:1029D00003C0242F762F50E021FF19C03091EB0067
:1029E0003E7F3093EB003091ED003D7F3093ED0062
:1029F0003091EB0031603093EB007093EC0020934A
:102A0000ED005093F0002091EE0027FF07C09F5F7C
:102A1000D3CF8F708093E90081E0089580E008951E
:102A2000CF92DF92EF92FF920F931F93CF93DF939A
:102A3000C8EDD0E088818F7E8883E7EDF0E080816B
:102A40008160808384E082BF81E08093C0038881BD
:102A50008E7F888302EE10E0F80110821092DA0077
:102A600081EEC82ED12CF601108288818F77888361
:102A700088818068888388818F7D888319BC1092C3
:102A8000F5051092F6051092F4051092F30590EEFC
:102A9000E92EF12CF70180818B7F80838881816012
:102AA000888342E060E080E00E94DB14F6018081D0
:102AB0008E7F8083F801808181608083808188603F
:102AC0008083F70180818E7F808388818061888305
:102AD000DF91CF911F910F91FF90EF90DF90CF90FA
:102AE00008951F920F920FB60F9211242F933F93C8
:102AF0004F935F936F937F938F939F93AF93BF9306
:102B0000EF93FF938091E10082FF09C08091E20082
:102B100082FF05C08091E1008B7F8093E10080916E
:102B2000DA0080FF2AC08091D80080FF26C0809103
:102B3000DA008E7F8093DA008091D90080FF18C080
:102B400080E189BD82E189BD09B400FEFDCF81E04D
:102B50008093F5058091C00381110FC00E94271456
:102B60000E9410158091E20084608093E20005C00D
:102B700019BC1092F5051092C0038091E10080FF0E
:102B800017C08091E20080FF13C08091E2008E7F29
:102B90008093E2008091E20080618093E200809166
:102BA000D80080628093D80019BC85E08093F50539
:102BB0008091E10084FF36C08091E20084FF32C042
:102BC00080E189BD82E189BD09B400FEFDCF80911D
:102BD000D8008F7D8093D8008091E1008F7E809314
:102BE000E1008091E2008F7E8093E2008091E2001C
:102BF00081608093E2008091F605882311F084E0E3
:102C000007C08091E30087FD02C081E001C083E03E
:102C10008093F5051092D0050E948B2C0E94E51D33
:102C20001092C1038091E10083FF27C08091E200F0
:102C300083FF23C08091E100877F8093E10082E0E1
:102C40008093F5051092F6058091E1008E7F8093C8
:102C5000E1008091E2008E7F8093E2008091E200AB
:102C600080618093E20042E060E080E00E94DB143B
:102C70008091F00088608093F000FF91EF91BF9108
:102C8000AF919F918F917F916F915F914F913F9104
:102C90002F910F900FBE0F901F9018952091FD055A
:102CA0003091FE052617370748F06115710539F494
:102CB0002091E8002E772093E80001C0B90140E0A0
:102CC00061157105A9F12091F505222309F443C08E
:102CD000253009F442C02091E80023FD40C0209136
:102CE000E80022FD32C02091E80020FFE9CF4091AA
:102CF000F3002091F20030E0342BFC01CF0161158C
:102D0000710559F02830310540F481918093F1002C
:102D1000615071092F5F3F4FF1CF41E028303105FD
:102D200009F040E02091E8002E772093E800C8CF1A
:102D30004111C9CF0AC08091F505882361F0853023
:102D400061F08091E80083FD0AC08091E80082FF75
:102D5000F2CF80E0089582E0089583E0089581E055
:102D600008958091BF03811107C08091F5058430DB
:102D700011F081E0089582E00895CF93DF93CDB7FD
:102D8000DEB72A970FB6F894DEBF0FBECDBF84B76B
:102D9000877F84BF0FB6F894A89580916000886102
:102DA00080936000109260000FBE80E88093610005
:102DB0001092610085B7806885BF85B7806885BF40
:102DC0000E9427140E9410158091E2008460809375
:102DD000E20078948091F5058823A1F01091E90034
:102DE0001F709091EC00892F817090FD80E8182B66
:102DF0001092E9008091E80083FD0E944F271F7028
:102E00001093E90082E084BD93E095BD9AEF97BDF1
:102E100080936E000E940B1090E090930A018093C3
:102E200009010E94DA100E94E910A5E8B3E0E8E980
:102E3000F3E01EE0E12EEE0E11921D92EE12FCCF99
:102E40008EE090E00E94463180937B0390937C0358
:102E5000FC010E962BEF2193E817F907E1F70E948A
:102E60004C23811102C00E9457230E94141C0E940F
:102E70004C23811104C00E9457230E94421E45E04A
:102E800050E06CE170E087E096E00E94242F809192
:102E900007068C7F11F40E94421E8CE090E00E9495
:102EA000342F90E0A0E0B0E080937D0390937E0308
:102EB000A0937F03B093800389EA8093800089E028
:102EC0008093810024982C983F988AB18F7C8AB98E
:102ED0006E98479A8BB180638BB9769A8FE090E0B9
:102EE0000E943C2F6093810370938203809383033D
:102EF0009093840367708FEF869FB00111247595BE
:102F0000679575956795772770938900609388001A
:102F100070938B0060938A0070938D0060938C0097
:102F20009091810394FF03C08093170102C0109217
:102F300017010E9482100E944C23811102C00E943E
:102F4000572382E090E00E94342F8093B00384E006
:102F500090E00E94342F90E0909394038093930329
:102F600083E090E00E94342F682F70E080E090E0D2
:102F70000E9476250E94F11D0E94F11D0E94021EF2
:102F80008BE091E09093960380939503FF24F39454
:102F900099249A94CC24C394D12C50E1452E62E11B
:102FA000562E78E1A72EB12CE0E48E2E8091F50507
:102FB000853009F052C040E060E080E00E94FE1DD4
:102FC000F092C1038091F505843041F1109297038E
:102FD0000FB6F894A895A09260000FBE8092600092
:102FE00040E060E080E00E94FE1DF092C10383B7E4
:102FF000817F846083BF83B7816083BF7894889525
:1030000083B78E7F83BF0FB6F894A8958091600038
:10301000886180936000109260000FBE8091F4057B
:10302000882309F4C3CF0E940B1090E090930A010B
:10303000809309010E94DA100E94E910E8E9F3E0A8
:103040001192EE12FDCF0E94F010E8E9F3E08191B9
:103050008111F2C0EE12FBCFA9CF0E94F010E1EB7C
:10306000F3E0A8E9B3E000E010E0702F6D9121914A
:103070002627B1F180E090E030E0782EA901082EFB
:1030800002C0559547950A94E2F740FF25C0898311
:103090007A83C60102C0880F991F7A94E2F73C0137
:1030A000862F90E08621972121E0892B09F420E0EA
:1030B0002B830E949E228160782F9D838C8349817F
:1030C0005A816B818D810E94E31CF801EF54FC4F03
:1030D00080816826608219C001968630910569F664
:1030E0000F5F1F4F0E30110509F0BFCF9E829F82E8
:1030F00018860E949E228160782F9A8789874E8148
:103100005F8168858A850E94E31C8091AD03909160
:10311000AE030E9474229C019091AC03992321F08C
:103120002431310508F47CC08091A8031091A903D3
:1031300081110BC0111194C02091AA03211190C0DC
:103140002091AB0321118CC06BC09F3F19F09F5F92
:103150009093AC03181624F40E9497218093A8033F
:103160008091A80387FF05C00E94972181958093D5
:10317000A803111624F40E9497218093A90380913B
:10318000A90387FF05C00E94972181958093A90319
:103190003091A803332301F12091A9032223E1F008
:1031A00045EB3403C0011124892F990F990B009727
:1031B00019F08093A80302C0F092A80335EB230313
:1031C000C0011124892F990F990B009719F0809352
:1031D000A90302C0F092A9038091AA03181624F44F
:1031E0000E9475218093AA038091AA0387FF05C0DE
:1031F0000E94752181958093AA038091AB031816D4
:1032000024F40E9475218093AB038091AB0387FF68
:1032100005C00E94752181958093AB030E94AA226C
:103220001091AF030E94E51D181709F4BFCE0E944C
:10323000E51D8093AF03BACE49BC59BC09B400FE6A
:10324000FDCF8091D8008F7D8093D8008091E000E1
:1032500082608093E0008091E00081FDFCCFA6CEEB
:103260009F3F09F074CF7CCF8033910520F5880F04
:10327000991F880F991FFC01EF5DFE4F528133812A
:10328000808183707181E0E98E9FC0011124845098
:103290009C4FFC01E70FF11DB4976083FC01E50F23
:1032A000F11DB4974083830F911DFC01B4972083D7
:1032B00081E08093FB030895FF920F931F93CF93B8
:1032C000DF93182F062FF42EC0E0D0E02F2D402FD3
:1032D000612FCE010E9434192196C033D105B1F778
:1032E000DF91CF911F910F91FF9008950F931F933E
:1032F00010E0F801EE0FFF1FE352FD4F9081905751
:1033000097FD9195000F111FF801E252FD4FE081EA
:10331000F0E0B097DF01AA0FBB1F8D010E0F1F1F3A
:103320002003D001219FB00D1124E8E3F0E0E91B58
:10333000F10997FDF3959F01220F331F89010E0FAD
:103340001F1F40039001419F300D11242A0F3B1F86
:1033500037FF02C021583F4F220F232F221F330B6C
:10336000620F1F910F9108950F931F93522F10E03A
:10337000F801EE0FFF1FE252FD4FE081F0E0B09741
:10338000EE0FFF1F9F015203D001539FB00D112478
:10339000000F111FF801E352FD4F008110E00057AC
:1033A0001109000F111F40039001419F300D11249E
:1033B0002A0F3B1F37FF02C021583F4F220F232FF8
:1033C000221F330B620F1F910F9108950F931F93CC
:1033D000522F10E0F801EE0FFF1FE252FD4FE08187
:1033E000F0E0B0979F015203D001539FB00D11241C
:1033F000000F111FF801E352FD4F008110E000574C
:10340000110940039001419F300D11242A0F3B1FE9
:1034100037FF02C021583F4F220F232F221F330BAB
:10342000620F1F910F910895EF920F931F9393E0F6
:10343000099F80011124159507956E2D600F1F912E
:103440000F91EF90089550E0FA01EE0FFF1FE25246
:10345000FD4F9081905297FD9195440F551FFA01B1
:10346000E352FD4F408150E0FA01E21BF1099F0158
:10347000290F311D97FD3A95620F0895E42FF0E072
:10348000EE0FFF1FE252FD4F6081621B0895E42F93
:10349000F0E0EE0FFF1FE352FD4F6081621B0895C5
:1034A000622F0895E42FF0E0EE0FFF1FE352FD4F6F
:1034B000408134EE439F412D1124E82FF0E050E08D
:1034C000445E5F4FDA01A21BB1099D01B7FF03C043
:1034D00031952195310993E0220F331F9A95E1F739
:1034E000AF01421B530B9A0157FF02C020E030E0AE
:1034F000582F259F212D1124822F0895E42FF0E0CD
:10350000EE0FFF1FE352FD4F408134EE439F412DEC
:103510001124E72FF0E050E0445E5F4FDA01A21B78
:10352000B1099D01B7FF03C031952195310993E0A1
:10353000220F331F9A95E1F7AF01421B530B9A01FB
:1035400057FF02C020E030E0279F212D1124722F69
:103550000895FC01CB01309721F477FF2CC080E85F
:1035600008959F01F7FF04C0222733272E1B3F0B2E
:10357000BC01621B730B280F391F97FD0DC0CB01D7
:1035800045E0880F991F4A95E1F7B9010E942C3157
:1035900080E2861B682F09C0C90125E0880F991FAA
:1035A0002A95E1F70E942C31605A862FF7FF02C05E
:1035B00081950895089580E00895EF920F93CF9339
:1035C000DF93D72FC82FC9010E19BA010E94A91A7B
:1035D000602F681B7D2F8C2FDF91CF910F91EF9083
:1035E00008950F93CF93DF93D72FC82FC901BA0146
:1035F0000E94A91A682F600F7D2F8C2FDF91CF9129
:103600000F910895EF920F931F93CF93DF93D62FCF
:10361000C72F182FC9010E19010FBA010E94A91A4C
:10362000081B019F012D11246D2F7C2F802FDF910E
:10363000CF911F910F91EF900895EF920F931F93E9
:10364000CF93DF93D62F172FC82FC9010E19070F5D
:10365000BA010E94A91A081B702F719F712D1124A5
:103660006D2F8C2FDF91CF911F910F91EF900895C7
:10367000FF920F931F93CF93DF93F62ED72F182F20
:10368000C901C12FC01BBA010E94A91A982F880F27
:10369000980F2C2F291B219F212D11246F2D7D2F59
:1036A000822FDF91CF911F910F91FF900895FF928C
:1036B0000F931F93CF93DF93F62E172FD82FC901A7
:1036C000C72FC01BBA010E94A91A982F880F980F04
:1036D000C91B7C2F719F712D11246F2D8D2FDF91B0
:1036E000CF911F910F91FF900895EF92FF921F933A
:1036F000CF93DF937B01182F110FC0E0D0E08C2F08
:103700008C5D8093E70320E030E0F901EC0FFD1FB2
:10371000EE0DFF1D8081F901E951FC4F81832F5F80
:103720003F4F2031310589F724E630E041E150E098
:1037300067EE73E0812F0E94F92E6096C039D105A3
:10374000F1F6DF91CF911F91FF90EF900895809156
:10375000FB03882351F06CEF73E084E70E94751B34
:103760006CE874E087E70E94751B1092FB030895D4
:10377000E7EEF3E06083418324E630E042E050E08E
:10378000BF01880F0C94F92ECF93DF93C82F4BE025
:103790006DEF0E94B81B40E06AE08C2F0E94B81BBE
:1037A0008FE39CE90197F1F700C0000040E060E082
:1037B0008C2F0E94B81B40E061E08C2F0E94B81B48
:1037C00040E066E08C2F0E94B81B40E06DEF8C2F2C
:1037D0000E94B81BD0E040E06D2F8C2F0E94B81BD8
:1037E000DF5FD231C1F740E06D2F8C2F0E94B81BF4
:1037F000DF5FD432C1F740E06D2F8C2F0E94B81BE1
:10380000DF5FD43BC1F74BE06DEF8C2F0E94B81BFC
:1038100041E06AE08C2F0E94B81B40E06DEF8C2FD6
:10382000DF91CF910C94B81B7F928F929F92AF92B1
:10383000BF92CF92DF92EF92FF920F931F93CF939D
:10384000DF930E94472E84E70E94C41B87E70E94F3
:10385000C41BE4E2EE2EE1E0FE2EC12CD12CF2E1FD
:103860007F2EA8E08A2E912CAA24A394B12CF701D4
:103870003297608170E0CB0184973196E081F0E06F
:10388000B497D7012C9130E024523109D601AA0F08
:10389000BB1FAA0FBB1FAF5DBE4FCC91C370D0E062
:1038A000AC0197FF02C0495F5F4F63E055954795B4
:1038B0006A95E1F77C9E80017D9E100D1124040F16
:1038C000111D0E531C4FB4010E942C31A50102C0E2
:1038D000440F551F8A95E2F7CA01D8019C91892BA4
:1038E0008C93CF01F7FD079653E0959587955A95F0
:1038F000E1F77C9E80017D9E100D1124080F111DA3
:103900000E531C4FCF01B4010E942C31F50102C0AF
:10391000EE0FFF1F8A95E2F7CF01D8019C91892B0A
:103920008C93C90137FD079643E0959587954A9595
:10393000E1F77C9EF0017D9EF00D1124E80FF11D52
:10394000EE53FC4FC901B4010E942C31950102C015
:10395000220F331F8A95E2F7C9019081892B80835A
:103960003FEFC31AD30A44E0E40EF11C50E3C5163E
:10397000D10409F07CCF81E08093E60302EC13E0F0
:10398000C0E0D0E0D8014D918D016C2F84E70E94FA
:10399000B81BFE01EE53FC4F42896C2F87E70E9453
:1039A000B81B2196C231D10569F7DF91CF911F91E4
:1039B0000F91FF90EF90DF90CF90BF90AF909F90CE
:1039C0008F907F900895EF92FF920F931F93CF9364
:1039D000DF93CDB7DEB767970FB6F894DEBF0FBEA3
:1039E000CDBF4B8B5C8B6D8B7E8B8F8B0E891F8934
:1039F00001151105C1F15F3F11F44F3FA1F1E42E14
:103A0000F12CA1E0B0E0042E01C0AA0F0A94EAF75D
:103A1000852F90E0662319F020910D0606C09C01C9
:103A20002E5D3A4FF90120812A232223A9F046E096
:103A3000489F9001499F300D1124F701E20FF31FB9
:103A4000EE0FFF1FEF51FE4F40815181FC01EE5DF3
:103A5000FA4F9081A92B06C0FC01EE5DFA4FA095AC
:103A60008081A823A08386E0FE013D96DF01982F88
:103A70001D929A95E9F74D875E876F87198B088BA2
:103A8000DE01179601900D928A95E1F7CE01079617
:103A90000E94A62A811137C086E0FE013796DE011A
:103AA000119601900D928A95E1F7FF81E8856A856C
:103AB0007B856115710539F1EF3F11F4FF3F19F175
:103AC0002091560530E0C9010196877099274091F1
:103AD000870550E08417950779F1F983EA837D83A0
:103AE0006C8396E0929FD001939FB00D1124A95A48
:103AF000BA4FFE01319601900D929A95E1F78093AD
:103B000056050E94802516E0809187059091560504
:103B1000891711F1189FC0011124895A9A4F0E94E8
:103B2000A62A8823C9F08091870590E001968770C6
:103B3000992780938705E8CF1092D0050E948B2C9F
:103B40001092560510928705E0E5F5E086E0DF016A
:103B50001D928A95E9F7D7CF67960FB6F894DEBF26
:103B60000FBECDBFDF91CF911F910F91FF90EF90CE
:103B7000089520912005309121058217930771F057
:103B80009093210580932005E0919503F091960391
:103B9000309721F00084F185E02D0994089520915B
:103BA0001E0530911F058217930771F090931F0532
:103BB00080931E05E0919503F0919603309721F0D4
:103BC0000680F781E02D09940895E0919503F09126
:103BD0009603309721F00190F081E02D099480E068
:103BE000089580910706837011F410920601809168
:103BF00007068C7F81608093070608950C945C19FA
:103C00000C94341945E050E06CE170E087E096E0F8
:103C10000C94482FE7E0F6E0880F880F90819370AE
:103C2000892B8083109206010C94021E9091070646
:103C3000892F86958695815C8F739370882321F0F8
:103C4000880F880F892B02C0892F80658093070613
:103C5000109206010C94021E90910706892F8695FA
:103C600086958F5F8F739370853120F4880F880F4E
:103C7000892B02C0892F8460809307061092060169
:103C80000C94021EE7E0F6E08DE2808311828FEF54
:103C9000828383838FE784830C94021E482F982F9E
:103CA00046FD9095E92FEF739F7046FD9F5FE2956B
:103CB000EF70EE0FF0E0E75EFE4F2181299F802D2F
:103CC000212D112482958F702295207F822B3081A7
:103CD000982F930F892F47FD819580580895BC0137
:103CE0008230910508F40895613E8EE1780748F42A
:103CF0009B0195E0369527959A95E1F748E0420FAC
:103D000001C04FEF91E0242F30E0290F311D359590
:103D10002795229FF001239FF00DF00D11246E17BF
:103D20007F0718F44FEF420F05C02F3F310539F0E0
:103D300091E0920F491738F78FEF890F08958FEFB1
:103D400008950F931F93CF93DF931F92CDB7DEB7E4
:103D5000182F47FD4195E8E3F0E0CF01841B91095E
:103D600047FD9395889FF001899FF00DF00D112478
:103D7000229FC001239F900D900D11248E0F9F1F35
:103D800079830E946F1E982F880F980F692F600FFC
:103D90007981812F0F90DF91CF911F910F9108951D
:103DA00020E030E0A901869F412D969F400D511DD6
:103DB0001124CA010895CF92DF92EF92FF920F93E0
:103DC0001F93CF93DF937B01282F382FE82FF0E04C
:103DD000F11006C0EA5FFA4F6491762F862F7BC000
:103DE0000F2D10E046E0649FC0011124CFEFD0E01A
:103DF000BE010E941831AB016BEA6403C001659FEC
:103E0000900D11248E0D911D8E0D911D982F990FDF
:103E1000890FBE01601B710B6E9FD0016F9FB00DAB
:103E20007E9FB00D11249B2F8F9DB0011124672F11
:103E300077277E01E61AF70AEE9EB001EF9E700D1D
:103E4000FE9E700D11246E01C81AD108C09E70012B
:103E5000C19EF00CD09EF00C11240F2D1127C01B19
:103E6000D10BCE9F8001CF9F100DDE9F100D11242E
:103E7000812F4230510591F04CF441155105E1F08C
:103E800041305105B9F4822F272F16C04430510517
:103E900069F044F04630510579F00CC0822F2B2F89
:103EA000912F0AC02B2F932F872F06C08B2F922F75
:103EB000212F02C08B2F972FE22FF0E0EA5FFA4FFD
:103EC0007491E82FF0E0EA5FFA4F6491E92FF0E097
:103ED000EA5FFA4F8491DF91CF911F910F91FF908C
:103EE000EF90DF90CF90089560917D038CE090E09B
:103EF0000C94582F9091930392FF0DC0282F287196
:103F0000283019F4877F846006C0282F247124305C
:103F100011F48B7F886093FF0DC0282F2871283102
:103F200019F4877E846106C0282F2471243111F48E
:103F30008B7E886194FD877E08950F931F93CF93A6
:103F4000DF93C62FD42F022FFC0182818823C9F072
:103F500060936F030E949E2290931D0580931C0521
:103F600080E28C0F883008F050C0C77081E001C03B
:103F7000880FCA95EAF7DF91CF911F910F910C94AA
:103F8000A92C10916F03161330C080911C059091DD
:103F90001D050E947422883C910538F5C0E2CD0FC2
:103FA0001D17B9F080E2810F883040F4177081E06E
:103FB00001C0880F1A95EAF70E949E2CC83048F479
:103FC00081E09D2F977001C0880F9A95EAF70E94B3
:103FD000A92C802F0E941A2DC830B8F4D77081E028
:103FE00001C0880FDA95EAF70AC080E28C0F8830AA
:103FF00060F4C77081E001C0880FCA95EAF7DF91CD
:10400000CF911F910F910C949E2CDF91CF911F9116
:104010000F9108958091D2050895CF93DF9300D03A
:104020001F92CDB7DEB72091F505243031F523E09E
:104030002983805891099B838A8382E08093E900D9
:104040008FEF9091E800815095FD06C095ED9A950F
:10405000F1F700008111F5CF8091E80085FF0DC0D8
:1040600040E050E063E070E0CE0101960E94182726
:104070008091E8008E778093E8000F900F900F906A
:10408000DF91CF9108950F931F93CF93DF9300D0CB
:104090001F92CDB7DEB78C010E94B116823011F0AD
:1040A000843021F584E089831B830A8382E0809336
:1040B000E9008FEF9091E800815095FD06C095EDE5
:1040C0009A95F1F700008111F5CF8091E80085FF06
:1040D0000DC040E050E063E070E0CE0101960E9428
:1040E00018278091E8008E778093E8000F900F905A
:1040F0000F90DF91CF911F910F910895CF93DF9390
:10410000EC010E94B116823011F08430F9F482E0A3
:104110008093E9009FEF8091E800915085FD06C0F3
:1041200085ED8A95F1F700009111F5CF8091E800B7
:1041300085FF0CC040E050E066E070E0CE010E94D8
:1041400018278091E8008E778093E800DF91CF9167
:104150000895CF93DF93EC010E94B116823011F0E5
:104160008430D9F580911501882339F0809193032B
:1041700087FF03C060E282E002C068E081E08093D4
:10418000E9008FEF9091E800815095FD06C095ED14
:104190009A95F1F700008111F5CF8091E80085FF35
:1041A0001CC080911501811105C040E050E068E01D
:1041B00070E003C070E040E050E0CE010E9418279C
:1041C0008091E8008E778093E80080E2FE01A3ED05
:1041D000B5E001900D928A95E1F7DF91CF910895B6
:1041E000803F39F48091A90387FF6CC01092A90326
:1041F00069C0813F29F48091A9031816BCF362C0FD
:104200009091A803823F29F497FF5CC01092A80305
:1042100059C0833F19F41916CCF354C0893F41F4B7
:104220008091AA0318160CF04DC01092AA034AC040
:104230008A3F29F48091AA0387FF44C0F6CF8B3FC1
:1042400039F48091AB0387FF3DC01092AB033AC0B5
:104250008C3F29F48091AB031816BCF333C0843F24
:1042600021F48091A7038E7F17C0853F21F48091B0
:10427000A7038D7F11C0863F21F48091A7038B7F18
:104280000BC0873F21F48091A703877F05C0883F3B
:1042900031F48091A7038F7E8093A70313C08D3FD5
:1042A00021F48091CF058E7F0BC08E3F21F4809149
:1042B000CF058D7F05C08F3F29F48091CF058B7F7F
:1042C0008093CF058091A80381110EC08091A9032E
:1042D00081110AC08091AA03811106C08091AB03AD
:1042E000811102C01092AC0308958091CF0580FD2A
:1042F00016C081FD16C082FD18C08091AC038823D2
:1043000091F0883290F428E0829FC001112468E285
:1043100070E00E942C31862F672B29F007C082E0C5
:10432000089584E0089581E0089588E008958091DB
:10433000CF0580FD17C081FD17C082FD19C0809197
:10434000AC03882399F08C3398F423E2829FC00158
:1043500011246CE370E00E942C31862F672B49F406
:1043600081E0089588E0089581E1089585E0089549
:1043700083E20895803F21F40E949721819504C033
:10438000813F29F40E9497218093A9030895823FD9
:1043900021F40E949721819504C0833F29F40E9453
:1043A00097218093A8030895893F19F40E947521ED
:1043B00005C08A3F31F40E94752181958093AA033C
:1043C00008958B3F21F40E947521819504C08C3F94
:1043D00029F40E9475218093AB030895843F21F452
:1043E0008091A703816017C0853F21F48091A703C6
:1043F000826011C0863F21F48091A70384600BC0C6
:10440000873F21F48091A703886005C0883F31F47D
:104410008091A70380618093A70308958D3F21F4C5
:104420008091CF0581600BC08E3F21F48091CF0534
:10443000826005C08F3F29F48091CF05846080930E
:10444000CF05089578941F920F920FB60F92112402
:104450008F939F93AF93BF938091CB059091CC05A1
:10446000A091CD05B091CE050196A11DB11D8093FF
:10447000CB059093CC05A093CD05B093CE05BF910D
:10448000AF919F918F910F900FBE0F901F90189535
:10449000CF92DF92EF92FF920F931F932FB7F89472
:1044A000C090CB05D090CC05E090CD05F090CE0526
:1044B0002FBF97018601061B170B280B390BC61659
:1044C000D706E806F90618F0C901B80106C0C90107
:1044D000B80161507109810991091F910F91FF90F5
:1044E000EF90DF90CF900895CF92DF92EF92FF92FE
:1044F0000F931F932FB7F8944091CB055091CC05A3
:104500006091CD057091CE052FBF6A017B01EE242D
:10451000FF248C0120E030E0C016D106E206F3064D
:1045200010F4415051099A01281B390BC9011F9100
:104530000F91FF90EF90DF90CF9008952FB7F894F0
:104540008091CB059091CC05A091CD05B091CE0581
:104550002FBF0895E0919503F0919603309749F0AD
:1045600082E08093A6030480F581E02D86EA93E043
:1045700009950E949E229093AE038093AD03089507
:104580001F920F920FB60F9211248F939F93AF93A8
:10459000BF9380919703811113C08091CB059091B7
:1045A000CC05A091CD05B091CE054196A11DB11DC0
:1045B0008093CB059093CC05A093CD05B093CE0509
:1045C000BF91AF919F918F910F900FBE0F901F9051
:1045D000189520911501222321F02091930327FDA6
:1045E00004C0FC013296089619C0262F2695269500
:1045F00026952E31C0F4FC01E20FF11D677081E0B9
:1046000090E001C0880F6A95EAF78095928189232E
:10461000828308953196E817F90729F0208126133F
:10462000F9CF1082F7CF089520911501222321F0B0
:104630002091930327FD05C0FC0132962FEF30E057
:1046400019C0262F2695269526952E3120F5FC019A
:10465000E20FF11D677081E090E001C0880F6A955C
:10466000EAF79281892B828308952F3F39F03F5FCB
:10467000363041F041914613F8CF0DC04111F7CFCC
:10468000232FF5CF2F3F39F0FC01E20FF11D27FD5D
:10469000FA9562830895089580E090E00E94422F89
:1046A00021E08E3E9E4F09F020E0822F08956EEEAD
:1046B0007EEF80E090E00E94762F60E082E090E064
:1046C0000E94582F60E083E090E00E94582F1092E3
:1046D000C7051092C8051092C9051092CA0560E07E
:1046E00084E090E00E94582F60E085E090E00E9416
:1046F000582F60E086E090E00E94582F6FEF87E02F
:1047000090E00E94582F40E050E0BA0188E090E02D
:104710000E946A2F60E08DE090E00E94582F40E0F8
:1047200050E0BA0188E190E00E946A2F60E087E1E2
:1047300090E00E94582F40E050E0BA018CE190E0F8
:104740000E946A2F60E080E290E00E94582F109251
:10475000810310928203109283031092840384E0F9
:104760008061809381034091810350918203609125
:104770008303709184038FE090E00E946A2F40E0F1
:1047800050E0BA0183E190E00C946A2FCF92DF925F
:10479000EF92FF926C01EE24FF24C114D104E104D6
:1047A000F10421F0C701B60120E101C020E0C72ECD
:1047B000D82EE92EFF24C114D104E104F10419F02C
:1047C000285FC701B6016B017C0154E0F694E794C1
:1047D000D794C7945A95D1F7C114D104E104F104D8
:1047E00019F02C5FC701B6016B017C0142E0F69421
:1047F000E794D794C7944A95D1F7C114D104E10442
:10480000F10419F02E5FC701B601DC01CB01B695AA
:10481000A79597958795892B8A2B8B2B09F02F5F6E
:10482000822FFF90EF90DF90CF9008958091C60582
:1048300081111092C60508959091C5058091D0050B
:10484000892B2091C405982F922B9093300580914D
:10485000C6058823D9F0892B8093300580911501F6
:10486000882331F08091930387FF02C08EE101C05D
:1048700086E0E2E3F5E090E0815028F021912223E8
:10488000D9F39F5FF9CF91110E941624E09195030F
:10489000F09196033097A9F080911501882359F083
:1048A0008091930387FF07C0809130058093310585
:1048B00085E0809330050280F381E02D80E395E070
:1048C00009940895BF92CF92DF92EF92FF920F93D7
:1048D0001F93CF93DF938C01C090C705D090C8057C
:1048E000E090C905F090CA058091BF059091C00580
:1048F000A091C105B091C205C82AD92AEA2AFB2A8B
:10490000CFE1D0E0D701C6010C2E04C0B695A79523
:10491000979587950A94D2F780FF07C0BC2EB801FF
:104920008C2F0E947E0D019719F4219758F7B12C16
:104930008B2DDF91CF911F910F91FF90EF90DF9022
:10494000CF90BF900895CF93DF93EC010E94622433
:10495000BE010E947E0DDF91CF910895292F220F75
:10496000920F990F890F682F669566956695982F17
:10497000977085E0689FB001112440E050E080E02E
:10498000FA01E60FF71FE857FA4F208130E0092EB1
:1049900002C0369527950A94E2F721703327042E3A
:1049A00001C0220F0A94EAF7822B4F5F5F4F453018
:1049B000510531F70895292F220F920F990F890F72
:1049C000A82FA695A695A695877051E001C0550F12
:1049D0008A95EAF785E0A89FD001112420E030E015
:1049E00070E0F901EA0FFB1FE857FA4F4081CB0155
:1049F000022E02C0969587950A94E2F78170992756
:104A0000819584278523842780832F5F3F4F25301E
:104A1000310539F708950E94D90F6093BF0570934F
:104A2000C0058093C1059093C2050C94702C0F9320
:104A30001F9341E050E060E070E004C0440F551F58
:104A4000661F771F8A95D2F74095509560957095AF
:104A50008091BF059091C005A091C105B091C2059C
:104A60008A019B01082319232A233B23C901B8018A
:104A70001F910F910C940B252091C30580958223E3
:104A80008093C305982F977079F430E0482F082E53
:104A9000000C550B2417350739F0859585958595BC
:104AA0000E9417251092C30508950F931F9341E0AC
:104AB00050E060E070E004C0440F551F661F771F90
:104AC0008A95D2F78091BF059091C005A091C1054C
:104AD000B091C2058A019B01082B192B2A2B3B2B75
:104AE000C901B8011F910F910C940B256093C70564
:104AF0007093C8058093C9059093CA050C94702CD7
:104B00008091870590915605891719F08F5F8770FE
:104B1000FBCF08959F92AF92BF92CF92DF92EF9218
:104B2000FF920F931F93CF93DF936C018091160137
:104B3000C82FCC0FCC0FC80FD5E0DC0FD13308F055
:104B4000D0E360910B06669566958091FF05909184
:104B500000060E94D01E182F80E4810F0E944E1E76
:104B600090E8F92EF80E812F0E944E1E20E8922E1A
:104B7000980ECD1700F5AC2EB12CF501E35CFC4F7F
:104B80008081909117019823A1F06091080670919F
:104B9000090680910A06E12E0C2F292D4F2DF601D2
:104BA00009950E94DB1E462F282F672FC5010E9402
:104BB000001ECF5FDECF81E0D03308F080E0DF91D0
:104BC000CF911F910F91FF90EF90DF90CF90BF900A
:104BD000AF909F9008956F927F928F929F92AF9225
:104BE000BF92CF92DF92EF920F931F93CF93DF93F9
:104BF0004C0180911601C82FCC0FCC0FC80FD5E007
:104C0000DC0FD13308F0D0E360910B0666958091FC
:104C1000FF05909100060E94D01E182FCD1708F0B6
:104C200044C06C2E712CF301E35CFC4F90818091A9
:104C300017018923C1F1F301EE0FFF1FE352FD4F6E
:104C4000C080D12C80E7C81AD108F301EE0FFF1FF6
:104C5000E252FD4FA080B12CE0E2AE1AB108CC9C2C
:104C60009001CD9C300D300D1124AA9CC001AB9C4D
:104C7000900D900D1124820F931F0E946F1E082F1C
:104C8000609108067091090680910A06E12E95014F
:104C9000A601F40109950E94DB1E462F282F672FDD
:104CA000C3010E94001ECF5FB9CF81E0D03308F06E
:104CB00080E0DF91CF911F910F91EF90DF90CF9027
:104CC000BF90AF909F908F907F906F900895CF92FC
:104CD000DF92EF92FF920F931F93CF93DF937C01AC
:104CE00080911601C82FCC0FCC0FC80FD5E0DC0F78
:104CF000D13308F0D0E360910B0666958091FF05F3
:104D0000909100060E94D01E182FCD1778F5CC2E5A
:104D1000D12CF601E35CFC4F90818091170189232F
:104D200019F1F601EE0FFF1FE252FD4F208130E036
:104D300020523109F601EE0FFF1FE352FD4F408173
:104D400050E0405751096091080670910906809122
:104D50000A06012FF70109950E94DB1E462F282F16
:104D6000672FC6010E94001ECF5FCFCF81E0D033F6
:104D700008F080E0DF91CF911F910F91FF90EF90AD
:104D8000DF90CF900895DF92EF92FF920F931F93E1
:104D9000CF93DF937C0190911601C92FCC0FCC0FDC
:104DA000C90FD5E0DC0FD13308F0D0E360910B06DA
:104DB000669566958091FF05909100060E94D01E31
:104DC000D82ECD17F0F40C2F10E0F801E35CFC4F67
:104DD000808190911701982391F06091080670915D
:104DE000090680910A062D2D4C2FF70109950E9486
:104DF000DB1E462F282F672FC8010E94001ECF5FA1
:104E0000E0CF81E0D03308F080E0DF91CF911F91B7
:104E10000F91FF90EF90DF900895CF93DF93EC0117
:104E200080EEFE01099581EEFE01DF91CF9109949C
:104E3000CF92DF92FF920F931F93CF93DF931F9236
:104E4000CDB7DEB7F82E8B0199830E948A14998121
:104E500081111CC0CF2CD92E01151105B1F0809104
:104E6000E80085FD0AC08091E8008E778093E80015
:104E70000E948A14882381F309C0F60181916F0191
:104E80008093F10001501109E7CF80E00F90DF918E
:104E9000CF911F910F91FF90DF90CF9008951F93B6
:104EA000CF93DF93CDB7DEB7AA970FB6F894DEBFE6
:104EB0000FBECDBFE7EFF5E088E08E0F9091F100D7
:104EC00091938E13FBCF8091F805833009F460C075
:104ED00030F4813071F0823009F49CC0B3C08A3064
:104EE00009F488C08B3009F46BC0893009F0AAC07E
:104EF00020C08091F705813A09F0A4C08091E800B4
:104F0000877F8093E8008091FB059091FC05892BB9
:104F100021F460E283ED95E003C060E080E090E082
:104F200070E00E944E168091E8008B778093E80035
:104F300089C08091F705813209F084C08091FB051A
:104F40009091FC05029708F07DC08091E800877F72
:104F50008093E8008091E80082FD05C08091F5050E
:104F60008111F8CF6FC02091F3008091F20090E0A2
:104F7000922B029729F48091F1008B7F813021F4EC
:104F80008091F1008093D2058091E8008B7756C024
:104F90008091F705813A09F055C08091FB05909109
:104FA000FC05892B09F04EC08091E800877F809333
:104FB000E8008091E80080FFFCCF8091150139C0A6
:104FC0008091F7058132F1F58091FB059091FC0508
:104FD000892BC1F58091E800877F8093E8000E94CB
:104FE000BC148091F905809315011092D0050E94A0
:104FF0008B2C28C08091F705813221F58091E80043
:10500000877F8093E8000E94BC148091FA0580930A
:10501000D10518C08091F705813AA1F48091E8008C
:10502000877F8093E8008091E80080FFFCCF80912B
:10503000D1058093F1008091E8008E778093E8009D
:105040000E94BC148091E80083FFD6C18091F705CF
:105050009091F805492F50E04A30510508F0CCC135
:10506000FA01E956FF4F0C944031803821F0823824
:1050700009F0C2C108C08091F3059091F40599230D
:1050800089F082600FC08091FB058F70873008F037
:10509000B3C18093E9008091EB0085FB882780F9FC
:1050A0001092E9009091E800977F9093E800809338
:1050B000F1001092F10074C1282F2D7F09F09CC1DE
:1050C000882319F0823061F097C18091F905813011
:1050D00009F092C1933009F080E08093F4052EC06E
:1050E0008091F90581112AC08091FB058F702FEF07
:1050F000280F263008F080C18093E9002091EB0052
:1051000020FF1CC0933021F48091EB00806214C01A
:105110009091EB0090619093EB0021E030E0A901C9
:1051200002C0440F551F8A95E2F74093EA0010929F
:10513000EA008091EB0088608093EB001092E90018
:105140008091E800877F2FC1811156C11091F90528
:105150001F778091E3008078812B8093E30080911A
:10516000E800877F8093E8000E94BC148091E800EB
:1051700080FFFCCF8091E30080688093E3001111F1
:1051800002C082E001C083E08093F50535C18058FC
:10519000823008F031C18091F9059091FA058C3D7B
:1051A00053E0950779F583E08A838AE289834FB7D4
:1051B000F894DE01139620E03EE051E2E32FF0E0A8
:1051C00050935700E49120FF03C0E295EF703F5FDA
:1051D000EF708E2F90E0EA3010F0C79601C0C096B5
:1051E0008D939D932F5F243149F74FBF8091E80045
:1051F000877F8093E8006AE270E0CE0101960E940A
:105200004E16BDC04091FB055091FC05292F332758
:1052100023303105B9F06CF42130310509F4FBC0BD
:105220002230310509F0E8C08BE390E0E6E0F7E0DA
:1052300054C02132310509F433C02232310509F45A
:105240003CC0DAC0992781309105D1F05CF4892BFC
:1052500009F0D2C0E9E8F7E0E4918E2F90E0E9E8A8
:10526000F7E038C08230910599F0039709F0C4C087
:10527000E3E5F7E0E4918E2F90E0E3E5F7E02AC064
:10528000E1E7F7E0E4918E2F90E0E1E7F7E022C05C
:10529000E9E5F7E0E4918E2F90E0E9E5F7E01AC048
:1052A0004115510509F4BCC04130510509F0A4C0B5
:1052B00089E090E0E1E3F7E010C04115510509F401
:1052C000B4C04130510509F097C080EC90E0E6E0B1
:1052D000F6E003C0009709F48FC02091E800277F13
:1052E0002093E8002091FD053091FE05281739072D
:1052F00008F4C90140E0009789F12091F5052223C7
:1053000009F43DC02530D9F12091E80023FD37C0D4
:105310002091E80022FD2FC02091E80020FFEBCF74
:105320004091F3002091F20030E0342B009759F0C7
:105330002830310540F444914093F10031960197B3
:105340002F5F3F4FF3CF41E02830310509F040E0B7
:105350002091E8002E772093E800CDCF4111CDCFEA
:105360000AC08091F505882351F0853041F0809185
:10537000E80083FD04C08091E80082FFF2CF8091B5
:10538000E8008B778093E80037C08038A9F58091DA
:10539000E800877F8093E8008091F6058093F10014
:1053A0008091E8008E778093E8000E94BC1424C0AE
:1053B000811122C01091F9051230F0F48091E800BB
:1053C000877F8093E8001093F6050E94BC141111AA
:1053D00006C08091E30087FD02C081E001C084E047
:1053E0008093F50542E061EC81E00E94DB1442E22B
:1053F00061EC82E00E94DB148091E80083FF1AC018
:105400008091E800877F8093E8008091EB008062C4
:105410008093EB000FC082E190E0E1E4F7E05DCF24
:1054200089E090E0E8E1F7E058CF80E490E0E6EC36
:10543000F6E053CFAA960FB6F894DEBF0FBECDBFED
:10544000DF91CF911F9108958091550582958F70BE
:1054500009F054C080915205882309F44FC080910F
:105460008705A091560560915005709151054091B6
:10547000530550915405B6E08A1709F43FC090E0F7
:1054800041155105C1F17F3F11F46F3FA1F1B89F64
:10549000F001B99FF00D1124E95AFA4F21817213DE
:1054A0002AC02081621327C02281211124C02381B8
:1054B00034812417350710F421503109241B350B92
:1054C000283C3105C0F4209155052F7020612093B0
:1054D000550526E0289FF001299FF00D1124E45A7C
:1054E000FA4F80818F708061808380E595E00E9413
:1054F000E6030C94802501968770BECF08950E9424
:10550000A324292F2F7092959F70E92FF0E03297F6
:10551000EE30F105B8F4EF55FF4F0C944031803F69
:1055200099F018F4883E70F40FC0843F59F40CC011
:10553000883E50F0813F31F407C0822F86958695D2
:105540008695089580E0089581E00895BF92CF92F6
:10555000DF92EF92FF920F931F93CF93DF93CDB71C
:10556000DEB761970FB6F894DEBF0FBECDBF8C01DA
:1055700085E0F801DE011D9601900D928A95E1F714
:10558000D8013C9111962C9111971296EC9012979C
:105590001396CD90DC901497509150056091510571
:1055A0008091530590915405009709F44FC16F3FC6
:1055B00019F45F3F09F44AC1B0905205BB2009F4C9
:1055C000ECC040915505C816D90628F0F601E81B35
:1055D000F90BCF0104C0809590958C0D9D1DFF2483
:1055E000F394883C910548F0F12C407F09F09FC06E
:1055F00080E595E00E94E60321C1842F807F09F0B9
:1056000044C0621312C0531310C0E1100EC04F709B
:1056100040614093550580E595E00E94E603809146
:105620005505D80115968C932EC0CD2819F12F3F22
:1056300011F43F3FF9F0FE2CE1101CC0809187056A
:105640004091560556E0841709F458C090E0589FE1
:10565000F001599FF00D1124E95AFA4F6181261388
:1056600006C06081361303C06281611103C00196D8
:105670008770E9CFFE2CEE2009F421C180915505F9
:10568000816080935505F12C1AC162130AC053132F
:1056900008C0E11006C080915505D80115968C937D
:1056A000B0C03D872E878D859E850E947F2A8823E6
:1056B000D1F1EE20C1F120915505822F82958F7096
:1056C00090E0029774F08091500590915105988771
:1056D0008F831986DB86CA862C87CE0107960E94A7
:1056E000E60386E0F801A0E5B5E001900D928A9509
:1056F000E1F70E94242AFF24F394E1C03D872E871E
:105700008D859E850E94A324292F22952F7030E03D
:10571000223031050CF0C7C09F7009F0C1C0805E17
:10572000883008F4CCC0C8010E94E603E4CF6213BD
:1057300014C0531312C0E11010C080915505F80138
:105740008583C8010E94E60386E0E0E5F5E0DF011D
:105750001D928A95E9F7FB2CB2C03D872E878D8577
:105760009E850E947F2A8823F1F2EE20E1F22091AB
:105770005505822F82958F7090E002970CF4B1CF7F
:1057800080915005909151059A8389831B82DD8217
:10579000CC822E83CE010196A2CFC816D90638F04E
:1057A000C81AD90AB8ECCB16D10450F007C08095BE
:1057B00090958C0D9D1D883C910510F0F12C3EC0FC
:1057C000FE2CEE2009F4AFCF621327C0531325C07F
:1057D0002091550520FD18C0822F82958F70482F8B
:1057E00050E04115510581F0F80125834F305105F6
:1057F00041F08F5F982F9295907F822F8F70892B29
:105800008583C8010E94E60386E0F801A0E5B5E0C3
:1058100001900D928A95E1F752C03D872E878D85C4
:105820009E850E947F2A81115CCF80915505816001
:1058300080935505C8010E94E60341C0E0E5F5E00C
:1058400086E0DF011D928A95E9F739C0EE2009F460
:105850006ACF3D872E878D859E850E947F2AF82EF0
:10586000882309F460CF86E0F801A0E5B5E0019057
:105870000D928A95E1F780915005909151050E9413
:10588000A32492959F70963041F480910D0691E08B
:10589000892780930D0690930C060E94242A0FC03E
:1058A00081113DCF0CC0243031050CF03CCF9F70EE
:1058B00009F435CFF8019581907F09F030CF8F2D15
:1058C00061960FB6F894DEBF0FBECDBFDF91CF91CA
:1058D0001F910F91FF90EF90DF90CF90BF900895B0
:1058E0001092C5051092C4050E941C24E6EAF3E05C
:1058F00086E0DF011D928A95E9F71092AC031092C1
:10590000CF050E94AA2280E090E00E94CF1D80E097
:1059100090E00C94B91D80911501882331F080919D
:10592000930387FF02C08EE101C086E0E2E3F5E069
:10593000DF011D928A95E9F70C94702C882341F0C1
:1059400080959091D00589238093D0050C941C24D8
:105950000895882339F09091D005892B8093D00544
:105960000C941C240895882309F463C0823869F4D8
:105970000E94E51D81FF5DC069E380E395E00E9420
:1059800014230E941C2469E30EC0833891F40E9402
:10599000E51D80FF4EC063E580E395E00E9414237F
:1059A0000E941C2463E580E395E00E94E9220C94A8
:1059B0001C24843869F40E94E51D82FF3AC067E424
:1059C00080E395E00E9414230E941C2467E4EBCF3F
:1059D0009CEF980F913A10F4682FE5CF90E2980F62
:1059E000983088F4877021E030E0A90102C0440FAC
:1059F000551F8A95E2F7CA0180959091D0058923B9
:105A00008093D005D4CF9BE5980F933020F480E0AD
:105A100090E00C94CF1D98E5980F973120F480E02A
:105A200090E00C94B91D803F20F00E94F0200C946F
:105A3000AA220895CF93C82F0E942D2DC93349F46F
:105A40002FEF87EE93E0215080409040E1F700C0B7
:105A500000008C2FCF910C94B32C882309F416C12D
:105A60008238B1F40E94E51D81FD10C169E380E335
:105A700095E00E9414230E941C242FEF41EE54E075
:105A8000215040405040E1F700C0000069E317C0DA
:105A90008338D9F40E94E51D80FDF8C063E580E3FA
:105AA00095E00E9414230E941C248FEF91EE24E0C5
:105AB000815090402040E1F700C0000063E580E3A2
:105AC00095E00E94E9220C941C248438B1F40E94D1
:105AD000E51D82FDDBC067E480E395E00E941423AE
